:020000040000FA
:2000000000500020ED000000E5000000C9000000E9000000E9000000E9000000000000001A
:20002000000000000000000000000000E9000000E900000000000000E9000000E90000001C
:20004000250E0000E900000059170000E9000000E9050000090B0000E9000000E900000057
:20006000E9000000AD170000E9000000E9000000E9000000E9000000E9000000E90000005D
:20008000E9000000E9000000E9000000E9000000E9000000E9000000E9000000E900000018
:2000A000E9000000E9000000E9000000E9000000E9000000E9000000E9000000E9000000F8
:2000C000E90000001D2600004FF0E023D3F8282DB2F5806F04D0D3F8283D9B0500D4FEE79F
:2000E000704700BFFEE700BFFEE700BF08B505F09BFA104A10498A420DD2104801390346C2
:20010000891A21F003010431014453F8040B8B4242F8040BF9D10A480A494FF000028842C3
:20012000B8BF40F8042BFADB02F03EFCFFF7CCFF08BD00BF00000020D802002008D30000A6
:20014000D8020020DC280020F0B5002706463C463D4683B0304603F0F9FC0195019B9C42C3
:2001600006DD00BF019B01330193019BA342F8DB304603F019FD0195019BC4F5C8749C42A1
:2001800006DD00BF019B01330193019BA342F8DB0137B7F5487F06D0B7F5C87FD4BF3C467C
:2001A000C7F54874D6E703B0F0BD00BF70B54FF08054194DD4F8D831284601215B68984746
:2001C0000122D4F8D83111461B682846984705F09DFA00F07FFE00F0FFFD00F0B5F803F08B
:2001E00041FD03F00FFD0120FFF7AEFF01230B4ED4F8B01105F5B825F360094AAB600B69F8
:200200001020D26A984705F085FA00F06BF9BDE870400020FFF798BF0040034000400940FD
:200220000020094008B541F2342002F01BF900F01DFC03F0F1FB0548082100F0EDFA03F0E3
:200240003DFBBDE808400220FFF77EBF1411002008210023F0B585B00DEB0100CDE90033D7
:2002600000F0DAFABDF80E40254D64BAEE6A4AF6CD31A4B20220B04721460320B0471A2166
:200280000120B04708226B6B0DEB02010B201D4F984701206946AC6AA0473B68022B1ADC42
:2002A000022001A9A04758B93B68022B04DC0020FFF74AFF05B0F0BD0199134806F014FA10
:2002C0003B68022BF3DD114806F00EFA0020FFF73BFF05B0F0BD0E4A0E490F4806F004FA7B
:2002E0000E4806F001FA3B68022BD9DD0949084A094806F0F9F90099094806F0F5F9CFE7D0
:20030000DCCD00005C0100204CCD000020D00000FCCC00000CCD000014CD000024CD00003B
:200320003CCD000000F01EBC10B54FF08054D4F8B83104205B699847D4F8B83104205B6BF7
:2003400098470128F8D110BDF0B593B005F0DEF90746FFF7E9FF4FF08053D3F8B8314FF417
:20036000A060DB6998470121164B174A9962936A9907FCD5002004F081FE144800F020FD11
:200380004822684612490CF075FB6D4600244FF08056D6F8B43120469B6B9847D6F8B431E1
:2003A00020469B694FF40051984755F8044F631CEFD10FB113B0F0BD13B0BDE8F04005F0C4
:2003C000A9B900BF00200860002008400000002060CD000010B54FF08054D4F8B83104200E
:2003E0005B699847D4F8B83104205B6B98470128F8D110BD38B5002400254FF080531A4A71
:200400000420C2E90045D3F8B8315B6B9847012801D0FFF7DFFF4FF08053D3F8B8310020BB
:20042000DB6998470121114B114A9962936A9B07FCD54FF080520F4C0F49E368204623F4C9
:20044000807323F00103E360D2F8C83104251B689847312040F221210122084B2560E063FE
:20046000A1605A6038BD00BFD8020020002008600020084000000140002100040000244356
:2004800010B505F077FC0023044C400E40EAC112C4E90023D4E9000110BD00BFD80200205D
:2004A00010B505F067FC0023064C400E40EAC112C4E9002302F070FD00B910BDBDE81040B5
:2004C00002F04ABDD8020020014B9868704700BF00200940704700BF0146012000F04AB82E
:2004E00005F03CBC2DE9F84305F010F901254FF480724FF000094FF480334FF080561B4CAB
:20050000DFF86C802321C8F80090656062606360D6F8843107461B6848469847D6F88431F7
:20052000242128461B689847D6F88431252102201B689847236843F4E0232360C4F80890BD
:2005400005F00CFC0346D6F8B02103F50073E361C8F8A052C8F800501420136998470FB1F6
:20056000BDE8F883BDE8F84305F0D4B80020094000002443431E012B10B419D9042815D1D5
:2005800000231A4610F004001CBF124C21621BB10121114BC3F880121AB101220E4BC3F87F
:2005A000A02218B101220C4BC3F8C02210BC7047012808D10346074A916110F0020204D0B0
:2005C000044CE161DEE70023F7E7002BEED01046DEE700BF0020094000002443014B186864
:2005E000704700BF0003002010B5FFF779FF194B1860FFF755FF184BD3F8A0307BB9164B76
:20060000D3F88020EAB9144BD3F8C02032B100204FF48031114AC3F8C002516010BD4FF432
:2006200080730E4C636005F099FB00F2052020F4FF70094B20F00100E061D3F88020002A4C
:20064000E1D000200121054AC3F88002516002F005FDD8E7000300200000244300200940C4
:200660000122024BC3F8002C704700BF0000084010B505F04BF8114BD3F8002C012A0AD010
:200680004FF0864201210E4C1C60C2F80411C2F8001178B110BD4FF086410A4CC3F8004C68
:2006A000074C1C60C1F80421C1F80021C3F8002C0028EFD1BDE8104005F02CB800000840CE
:2006C000502D190051E5CC1A0122014BDA6070470000084070B5044605F018F82146064699
:2006E000114802F051FF104802F04CFF38B101210E4B0F4AC3F8001253699B06FCD54FF0D3
:200700008055D5F8A03160681B689847D5F8A03160689B6898471128F8D106B170BDBDE869
:20072000704004F0F7BF00BF04030020000022430010094008B5064802F024FF38B1012190
:20074000044B054AC3F8001253699B06FCD508BD04030020000022430010094010B5A8B138
:200760004FF0805C0021134C134A6368012023F4C0536360DCF8A031C2F88011C2F80012EC
:20078000DB68984763699B06FCD410BD04460B4802F0F8FE0028E3D005C814430028FBD1B5
:2007A000002CDDD0034A536823F4C05343F40063536010BD0010094000002243040300202F
:2007C00038B5054604F0A2FF04462946054802F027FF0020FFF7C2FF04B138BDBDE8384090
:2007E00004F098BF0403002070B590B10E460024451E04E0A64206D000F04CF9013415F82D
:20080000010F0028F6D100F065F90128FBD0204670BD0446F7E700BF10B40C4B0C4C1A7818
:200820000133FF2A0FD1A342F9D10A4C49B10139631801381978A34200F8011F03F1FF33DA
:20084000F8D110BC7047014CF0E700BFC8FF0100D0FF0100F012005038B54FF08055D5F8B1
:20086000B83102205B699847D5F8B83102205B6B984701280446F7D1D5F8B8314FF40070A9
:20088000DB699847034B044A9C62936A9B07FCD538BD00BF0020086000200840F0B54FF0A3
:2008A000805540F2F27683B0284CFFF7D5FFD5F8D0312046DB689847D5F8B03115205B695B
:2008C0009847A36BD5F8B42123F4FE6323F00203A3636664D36B03209847082112231C4A25
:2008E0002046C2F89010D5F8B4210093176C132303220221B847D5F8D0216023204657689D
:2009000014494FF4E132B847142240F2011340F201306263E26A104942F01002E2620A68E2
:20092000002A18BF0346236366640B685BB11520A36BD5F8B02143F05003A363136903B002
:20094000BDE8F040184703B0F0BD00BF0010004000200240006CDC02080300204FF080530B
:2009600070B5D3F8B83104465B6B02209847012807D13A4BDB6ED80703D5394A9369190768
:20098000FCD4032C45D0374B1B6803B170BD4FF08055D5F8B83102205B6B9847012856D17C
:2009A0002E4BDB6EDA0715D54FF080562C4DD6F8D0312846DB689847D6F8B03115205B6915
:2009C000984740F2F272AB6B23F4FE6323F00203AB636A644FF08053D3F8B8314FF40070A7
:2009E0001B6A9847032C23D001211F4B1B4A9962936A9B07FCD5032000F0FEF9022000F0F9
:200A0000FBF9132000F0F8F9BDE87040122000F0F3B94FF08055D5F8B83102205B6B98471A
:200A20000128BDD0D5F8B8314FF400701B6A98474FF08054D4F8B8314FF400709B6A9847D4
:200A4000D4F8B8314FF400701B6B9847CCE7D5F8B8314FF400701B6A9847C5E70020084035
:200A600000100040080300200020086010B504F04DFE0446054800F0A3F90022044B1A6061
:200A800004B110BDBDE8104004F044BEC0000020080300204FF0805310B5D3F8B831044609
:200AA0005B6B0220984701280BD0FFF7F7FE4FF08053D3F8D0312146BDE810400348DB69B7
:200AC0001847034BDB6EDB07F1D4EEE7001000400020084008B54FF08053D3F8B831022047
:200AE0005B6B984701280AD1064BD86E10F0010004D0A3F501239869C0F3C00008BD0020CC
:200B000008BD00BF0020084070B5FFF7A5FE40F2F2720C4C236C626413F0500F0DD00A4D52
:200B20004FF0805606E0D6F8D03120461B6998472B681BB9A369DB06F5D570BDC0B2984786
:200B4000EEE700BF00100040080300204FF0E022D2F8103D23F00403C2F8103D30BFFFF728
:200B6000B3BD00BFF8B504F0D1FD02F003FC18B1BDE8F84004F0CEBD884802F003FD0225D8
:200B8000044648B1636823B19847A84228BF2846C5B22468002CF5D1FFF7A2FC804B0446B7
:200BA000D3F88032002B00F0D2807E4B9B691B1A022B00F19680A3F28F23002BACBF022016
:200BC0000120854228BF054602F0E6F9002840F08E80012D00F0CB80022DC9D12846611EA5
:200BE000FFF7C8FC6D4802F0CDFC06250446002800F0AF80A3680BB102209847236924682F
:200C000025EA0305002CF5D1FFF75EFD6B0700F1A380002D40F0A38000F0BCF90020FFF7B9
:200C20009DFD4FF08052604C3920236823F003032360A36843F00F03A360D2F8B8319B69D3
:200C400098470020594B20642064C3F8200404F0A5FE062D00F09D804FF080560027544C57
:200C6000504D0321EB6AD4F82432524823F00303C4F82432D6F8D8315B689847D6F8B83147
:200C80009B6B9847EB6A04F0A9FF4B4AD6F8D831C2F88071474801215B6898470121D4F826
:200CA0002432464A43F00303C4F82432D160EB6A04F0C6FFFFF73EFDFFF7F2FBFFF704FDB9
:200CC000364802F05FFC044628B1E36803B198472468002CF9D104F01DFDBDE8F84004F0E7
:200CE00019BD02F059F900283FF442AF002502F05BF90646FFF7C4FB361A002E7FF738AF47
:200D0000FFF76CFC00EB46210B1BA3F28F22002A36DA002D3FF42CAF082B2ED404F5803460
:200D2000631A31EA230128BF21460220FFF722FC4FF0E022D2F8103D23F00403C2F8103DFA
:200D400030BFFFF7C1FCBDE8F84004F0E3BC022037E7FFF7B9FC06250022184BDA604FF06D
:200D60008053D3F8B83128469B69984754E7022004F58031FFF7FEFBDAE704F10801D4E72B
:200D8000012DC9D0022D7FF4F3AE2846FFF7F2FB28E7022004F0EAFD5EE700BF0C030020B9
:200DA0000000244300200940001009400000224300200840004003400000044300400940EA
:200DC0000146014802F0E0BB0C0300200146014802F026BC0C03002010B5064802F0CEFB66
:200DE000BDE810404FF08053D3F88431202103201B6818470C030020431C10D04FF08053A6
:200E000010B5D3F8B43104461B684FF4C042002198470023024840EA8404236010BD704725
:200E2000001A4442034BD3F8E000C3F8E00002F005BF00BF002002404FF0805370B5D3F8A5
:200E4000B4310C465B680546984714F00C0320F0E06222F4EC2207D0042B23D0082B24D0C5
:200E60000C2B08BF42F4403214F0030310D142F4C04223064FF08053D3F8B4312846BDE8AB
:200E800070404FF000011B6848BF42F480221847022B04D0012B08BF42F48042E9E742F4AF
:200EA0000052E6E742F40032DEE742F48032DBE7074AD2F8D030C340DB074CBFD2F88030B7
:200EC000D2F8C03023FA00F000F00100704700BF002002400022412300B585B002A8CDE9B2
:200EE0000223FFF7F7FB042004F012FF032805D102A8FFF765FC05B05DF804FB0321042069
:200F000004F0DAFE042004F003FF0328FAD11C234FF0405200210090044804F015FC02A839
:200F2000FFF74EFC05B05DF804FB00BF00A00C400022412300B583B06846CDE90023FFF7D2
:200F4000C9FB012004F0E4FE012803D00121032004F0B2FE6846FFF733FC03B05DF804FB17
:200F60000022412300B583B06846CDE90023FFF7B1FB012004F0CCFE012805D04FF08053EB
:200F8000D3F8800004F0DEFC6846FFF719FC03B05DF804FB10B54123002482B06846CDE995
:200FA0000043FFF797FB0320214604F085FE012004F0AEFE20B96846FFF702FC02B010BDAA
:200FC0004FF08053D3F8800004F0BCFC6846FFF7F7FB02B010BD00BF70B5038804463BB14E
:200FE00040F2CB22934208D182290AD0012070BD40F2CB232380012070BD00232380032057
:2010000070BD094B094E1D69FFF75EFB03F004F903F0D2F98021A847002880B2E8DD03F0D3
:20102000C5F9F3689847EFE7DCCD000000D10000024BD3F89C0100F00100704700200840A3
:201040004FF0FF332DE9F0412E4C8046236023680F460B6010F0030302D1028811050DD470
:2010600004F054FB284B0546D3F89C31DB071BD4002D36D000252846BDE8F081438004F073
:2010800045FB214B0546D3F89C31DA07F0D5B8F8003013F4405F07D003F44063B3F5006F0D
:2010A00004BF1A4BC3F80080194E4CF25032C6F800807368236003E07368013A236018D0A6
:2010C0002368DBB2002BF7D085B123683B602568EDB2A5F10105B5FA85F56D092846BDE830
:2010E000F08104F017FB2846BDE8F08104F012FBEBE71DB1236800253B60BCE704F00AFB6D
:20110000F8E700BF100300200020084014030020001004400B4A01E0013A11D0438803F4F7
:201120004063B3F5806FF7D14388074A9BB21360428802F44062A2F58062B2FA82F252097B
:201140001046704720A107001003002070B54FF0805482B004F0DAFAD4F8B03105461B6AD8
:2011600019209847D4F8B03112201B6A9847D4F8B03119205B699847D4F8B03112205B69E8
:201180009847D4F8B83101205B699847D4F8B83101205B6B98470128F8D1174A174BD06295
:2011A0009862936A9B07FCD54FF080540022144BD4F8B0111A615A6119200B699847D4F816
:2011C000B03112201B6998479DB140F2FF3600240C4B0D4A0D4D01A92E600D48DC611A6074
:2011E000FFF72EFFA0F10100B0FA80F0400902B070BD04F08FFAE8E70020084000200860BC
:20120000001004600010044051000706000004600100060400B587B01422002101A80BF052
:201220001BFD4FF0010C40F60A0218499DF8113009686CF30303059101A86946ADF8042044
:201240008DF81130FFF7FCFE012803D0002007B05DF804FB0E4801E00138F8D0BDF806308E
:2012600003F44063B3F5806FF6D1BDF80630094A9BB21360BDF8060000F44060A0F58060B4
:20128000B0FA80F0400907B05DF804FB2403002020A107001003002000B587B0142200215B
:2012A00001A80BF0D9FC4FF0010C40F609029DF8113069466CF3030301A8ADF804208DF847
:2012C0001130FFF7BDFE012803D0C0B207B05DF804FB134A01E0013A1CD0BDF8063003F45C
:2012E0004063B3F5806FF6D1BDF806300D4A9BB21360BDF8063003F44063B3F5806F09D1F5
:20130000094B1A7852B90122059808491A7008601046DBE7002007B05DF804FB0120D5E7B9
:2013200020A1070010030020BE2800202403002030B54FF0805487B004F0E8F9D4F8B031B4
:2013400005465B6919209847D4F8B03112205B699847334BD3F89C31DA072FD4FFF79CFF59
:20136000002001212E4A2F4BD0629962936A9B07FCD54FF08054D4F8B83101209B699847D0
:20138000D4F8B83101205B6B98470228F8D1D4F8B03119201B6A9847D4F8B03112201B6A31
:2013A0009847D4F8B03119201B699847D4F8B03112201B6998476DB307B030BD00211A4B79
:2013C000102219610124596102A80BF045FC40F60D029DF8153002A864F3030301A9ADF827
:2013E00008208DF81530FFF72BFEA042B6D10F4A01E0013AB2D0BDF80A3003F44063B3F54B
:20140000806FF6D1BDF80A30094A9BB21360BDF80A30A3E707B0BDE8304004F07BB900BFE8
:2014200000200840002008600010046020A107001003002008B504F0CFF9052803460ED080
:20144000032806D080B903220C4B0120C3F8D02108BD0222094B0120C3F8D02108BD074AE9
:201460000120C2F8D03108BD012801D0002008BD0521024AC2F8D01108BD00BF00200840F3
:2014800008B5FFF763FE012804D1FFF7C3FE012800D108BDFFF74CFF002008BD08B5FFF7EB
:2014A000FBFEFFF7B7FE012800D108BDFFF740FF002008BD38B5194B194A1978D2F89C21E3
:2014C0000029184C18BF0024D30700D438BD04F01DF902464FF080550021134B13489861A8
:2014E0005C611446D5F8B0211961136A19209847D5F8B03112201B6A9847D5F8B0311920FD
:201500001B699847D5F8B03112201B699847002CDCD1BDE8384004F0FDB800BFC0280020BF
:20152000002008400000C0800010046000004080094B1B782BB100231946084A1161536112
:201540007047074A074B0849002808BF1346034A11615361704700BFC02800200010046033
:201560000200C0800800C0800000C080044A054B1178054A002918BF00235361704700BFDE
:20158000C02800200000C08000100460014B1868704700BF1403002038B50B460446154633
:2015A00000211A460BF058FB0122637B258062F30303637338BD00BF014B1860704700BF97
:2015C0001803002010B5064B06495C6806480C6000234FF43441054A01F04AFB012010BD9F
:2015E00000300440200300202C03002061160000164B1B6843B370B59B68984708B90020AC
:2016000070BD04F083F80023114A124E5468326814F1804143F10003914273F10003054678
:2016200003D3346065B1012070BDFEF759FF0A4A0A4913680860013313603460002DF2D1DA
:2016400004F068F8012070BD00207047180300200030044020030020280300201C03002095
:2016600010B5134B1B68B3B19B689847D8B9114C236A984701280ED1FFF7BAFF636A044656
:20168000984744B1BDE8104000234FF434410A4A0A4801F0EDBA0023BDE810408021064A5F
:2016A000064801F0E5BAFFF7A3FF0446E9E700BF18030020DCCD0000611600002C03002031
:2016C00070B5204E3368002B39D09B680446984708BB1D4D2B6A9847FFF78AFF6B6A9847A8
:2016E0001A4BB4F1404F1D681CD83268184BB2F90C101A68CB17891A63EBE273091945EB18
:2017000003052D0243F609520023080245EA11610AF0F8FF70BDFFF76BFF0C4BB4F1404F27
:201720001D68E2D9FEF7DCFE0A4B1B68C3F17E4303F57203C34248BF05F1FF35D5E7184690
:2017400070BD00BF18030020DCCD000028030020240300201C03002010B5104BD3F89C3130
:20176000DA0704D4FFF7F2FC012800D010BD0C4C23695B0204D46FF00042094B1A6110BDB0
:201780000122084B08481A7001F030FE6FF480036FF000422361024B1A61F0E700200840C8
:2017A00000100460C1280020D400002008B5114BD3F89C31D90704D4FFF7C8FC012800D09C
:2017C00008BD03F0A3FF0C4B1A6912020BD40A4B1A6912F00A0F1CBF6FF00A021A61BDE889
:2017E000084003F097BF6FF4000204481A6101F0FDFDECE70020084000100460D40000209E
:20180000014B1878704700BFC228002008B5FFF70FFC30B1034B5888A0F10200B0FA80F0F2
:20182000400908BD500300207D2901D90120704708B50A46014602480BF01CF9002008BD3C
:201840002606002010B588B040F60202182102A8FFF7A2FE012211499DF818300968104C65
:20186000898823F00F03ADF81A1002A801A907948DF818308DF81620FFF7E2FB012802D01E
:20188000002008B010BD02A8FFF744FCA0F10100B0FA80F0400908B010BD00BF2401002045
:2018A000F8000020F8B50E4D00200E4E2C680E4F06E02379022B06D024682B68A34209D039
:2018C0002379032BF5D133782BB124682B680120A342F5D1F8BD384601F088FD0120EBE76A
:2018E00018060020C0280020D400002030B583B0FFF74CFE0446FFF79BFB08B903B030BD1F
:201900000A4801A9FFF79CFB0128F7D1FEF7E8FD6FF03F052D1A03E0FEF7E2FDC542EDD509
:20192000638803F44063002BF6D0E7E7010001040B280BD00C2801D001207047042A08D16B
:2019400039B10A4B00201B680B607047082A00D109B902207047064A4B1E073112F80109E0
:2019600003F8010F8B42F9D1002070474C0300207F030020082200B585B000210DEB0200AE
:201980000BF06AF942F2034302A801A9ADF80830FFF756FB20B19DF90A30803303D00020B0
:2019A00005B05DF804FB9DF80C0000F00C00A0F10400B0FA80F0400905B05DF804FB00BFC1
:2019C000082210B584B00DEB020000210BF044F902229DF80C3042F2034462F301038DF843
:2019E0000C300CE0082200210DEB02000BF034F902A801A9ADF80840FFF722FB38B19DF880
:201A00000C0000F00303022BECD004B010BDFF2004B010BD2DE9F043DFF8CC8083B0814654
:201A20000F46D8F80060FEF75BFD304D2D1A03E0FEF756FDC5421DD53479022CF8D0032C1A
:201A400013D1D8F800100B7A062BDEB202DDB51FBD4211DD00231D4628460A680B71C8F83A
:201A600000200B7203B0BDE8F0830025284603B0BDE8F0833479E2E72A46093148460AF0F8
:201A8000F9FF0422D8F80010F31CCB5C184F5BB23B70331DCB5C05363144164E03F03F0333
:201AA0000DEB020033700AF0E5FF0198FFF708FE114B124A1B7810605BB100222846D8F8EF
:201AC000003019681A72C8F800101A7103B0BDE8F0833978042049B289B202F0BDFC204687
:201AE000317802F0B9FCE8E720060020F4FEFFFFD6020020BF280020C02800204C0300201B
:201B000030B583B0FEF7ECFC194C241A06E0FFF731FF38B1FEF7E4FCC44203D5FFF788FA0D
:201B20000028F4D101A91348FFF78AFA6FF03F04FEF7D6FC104D241A06E06888022808D15C
:201B4000FEF7CEFCC44203D5FFF772FA0028F4D1688842F20243984207D042F20743C01A27
:201B6000B0FA80F0400903B030BD012003B030BD00FEFFFF010001045003002008B5FFF779
:201B800057FA30B1044B5B88022B14BF0220012008BD022008BD00BF5003002030B583B0A8
:201BA000FFF746FA30B1134C6388022B02D1012003B030BD0F4801A9FFF742FA012802D0D5
:201BC000002003B030BDFEF78BFC6FF03F05094C2D1A03E0FEF784FCC54209D5608802283B
:201BE000F8D1A0F10200B0FA80F0400903B030BD6088F6E75003002008B5FFF723FE012851
:201C000001D0002008BDFFF7C9FFC0B208BD00BF10B5FEF765FC1A4C241A06E0FFF7AAFE17
:201C200038B1FEF75DFCC44203D5FFF701FA0028F4D1FFF7FDF9134C20B16388022B01D1AB
:201C4000FFF75EFFFFF774FBFFF7A4F900220E4B62801979022908BF1A710C4B1A79022AB7
:201C600004BF00221A710A4B1A79022A04BF00221A71084B1A79022A04BF00221A7110BD21
:201C800000FEFFFF50030020E803002074040020000500208C05002008B5FFF7B1FD0128D2
:201CA00001D0FFF7B5FF012008BD00BF10B5FFF7A7FD012808D0FFF73BF9FFF7B9F928B1F9
:201CC0001D4B5B88022B01D1012010BD4FF0010C4FF0840E19481A4B44791A496CF38304E3
:201CE00001601860A0F806E044714879164A6CF383000A60A1F806E04871507959796CF339
:201D000083006CF383011360A2F806E0A3F806E050715971FFF724F9FFF7B2FB012801D0AE
:201D2000002010BDFFF7C6FBFFF78CFD0128F7D1BDE81040FFF732BF50030020E803002035
:201D40008C0500207404002000050020F8B50025354E3648FFF734F8FFF76CFB8C222946A6
:201D600030460AF079FF8C22294631480AF074FF8C2229462F48304C0AF06EFF8C222946E4
:201D80002E480AF069FF2E4F2E4B8022294620463E601E607D600AF05FFF42F601032A4EF9
:201DA0002360A623304642F202024FF2F001276101272377E36820F8022B1940234AA3694B
:201DC000C4E901551A4094F83730C4E9085567F3030384F837301E4BE5830B43E3601D4B9C
:201DE00004F118011343A3611B4B02226361A5630AF040FE3A4604F11A01301D0AF03AFEDE
:201E0000FFF754FFB84202D02C462046F8BD04461248FFF7D1FBFFF7D5FB2946104801F03C
:201E2000EFF92046F8BD00BFE8030020E40000207404002000050020500300208C050020F0
:201E40001806002020060020D0030020007C008000011AB10702FF6FD803002014CE0000EF
:201E6000D400002070B5FFF7CBFC012835D0FFF7DFF8A8B3224E7388022B31D1FEF730FB7C
:201E8000204C241A06E0FFF775FD38B1FEF728FBC44203D5FFF7CCF80028F4D1FFF7C8F80E
:201EA000D8B100257388022B26D1FFF789FDFF2822D000F00300441E18BF012475B1FFF753
:201EC0009FFC01280AD0FFF7A3FE204670BDFFF797FC012801D0FFF79BFE0124204670BD70
:201EE000FFF7E4FE01280446F1D1FFF7A1F80028E5D02546024ED5E70124002DEED0DEE71D
:201F00005003002000FEFFFF70B588B00546FFF78FF800285AD03A4B5B88022B56D10024FB
:201F2000FEF7DEFA6FF01F06361A07E0FFF722FD012854D1FEF7D4FAC64252D5FFF778F85E
:201F40000028F3D1182142F6014202A8FFF724FB00222C4BE8B28DF81700069304929DF88F
:201F60001430012062F303038DF81430FFF7E0FA02A801A9FFF764F8D0B1234DBDF80A3082
:201F80002A7803F4406333B982B3BDF80A3003F44063002BF8D0BDF80A50ADB2B5F51055EB
:201FA00018BF0125FFF7E2FA3CB9284608B070BD0125FFF7DBFA002CF7D0FFF721FC0128EA
:201FC000F3D0FFF725FE284608B070BDFFF76EFE01280446A4D00125284608B070BD0028E8
:201FE000B0D034B90225284608B070BDFEF7AEFDC4E7FFF705FC0128F4D0FFF709FEF1E7F6
:202000005003002026060020C02800207D2801D901207047FFF778BF7D2901D9012070471D
:2020200010B50C460A46014603480AF023FD2046BDE81040FFF768BF2606002010B5FFF70E
:20204000DFFB01281AD0FEF7F3FFB8B10C4C6388022B13D1FEF7ECFF60B9FEF7E9FF68B100
:202060006388022B0AD1FFF7ABFCFF2806D0C0F3801010BDFFF77EFC0028EED0002010BD80
:20208000500300200B2810B502D00124204610BD082A23D111B3154A01F1080313F8010D4C
:2020A0008B4202F8010BF9D1FEF7C2FF04460028ECD00F4C6388022B15D1FEF7B9FF80B168
:2020C0006388022B0DD1FFF71BFD012809D00324FFF764FD012818BF0324D7E7022420460B
:2020E00010BD0024F4E70024D0E700BF780300205003002030B585B0072800F2BB80DFE82F
:2021000000F029323D474A7176045B4C2177FEF78FFF002838D06388022B35D1FEF788FF2F
:20212000002800F08C806388022B40F08880FFF7E7FC012818BF032400F08180FFF7AEF99D
:2021400001287ED0FFF72AFD012818BF0324204605B030BD012900F08780002974D0022408
:20216000204605B030BDA1F10B030F2BF7D8424CC9B2A37B8B4207D0A173C8E73E4C6186AF
:20218000FEF756FF0028C6D10024204605B030BD394C2186BBE731F00703E0D1364C01F0ED
:2021A0000103228B3548C1F3400543F0020302F4FE4243EA850313430278C1F380019142FD
:2021C00023830170A3D104F1180102222C480AF051FC2C4803A9FEF733FF00280CBF032426
:2021E0000024B4E731F00103B9D1CCB2AFE701F115031A2BB3D86FF014030C25224A01E08F
:2022000052F83530994229DD013DF9D2FEF710FF044600289BD00422002103A80AF01CFD3F
:202220001022194B03A803EBC505AB8802A90024ADF80E30ADF80C20FEF702FF87E7002467
:202240007CE7FFF7D5F97DE70191FFF7D9FA01289AD0FFF7DDFC01990C4678E70A4B0B4A41
:2022600003EBC5031360D1E7FFF720FD01288BD003246CE701246AE750030020C02800207B
:20228000D2030020D003002024CE000024010020D1B170B50C4684B0182813D8DFE800F010
:2022A0003EB0AB684D0D16A5736D3912121235312C281224201C0DB56400002318460B607B
:2022C00004B070BD0120FBE7022070475D4B00201B681B680B60F3E70A2300200B60EFE7A0
:2022E000202300200B60EBE7032300200B60E7E7052300200B60E3E76FF0140300200B6041
:20230000DEE71A2300200B60DAE70B2300200B60D6E74D4B00201B780B60D1E7FEF788FE10
:20232000002800F08A80494B5888A0F10203B3FA83F35B0900202360C2E70023434A0B6083
:20234000137E03F001030B60127E520744BF43F002030B603E4B1B78002B44D00B6800200D
:2023600043F004030B60ABE77D2300200B60A7E7364B00201B8E0B60A2E7364B00201B78FB
:202380005BB20B609CE7FEF753FE00283FD02F4B5B88022B3BD10026082200210DEB0200C4
:2023A0000AF05AFC02229DF80C3042F2034562F383038DF80C300AE0002102A80AF04CFCC9
:2023C00002A801A9ADF80850FEF73AFE48B39DF80C2002F00C02082AEED03EBB9DF90A300A
:2023E000236080332BD000206AE7184B002093F91C300B6064E7154B00205B8E0B605FE710
:20240000124B00209B7B0B605AE7182392E7FFF74DFC01280646BFD06FF07F0303202360FF
:202420004EE780238DF80A30002EF5D0FFF7E8F90128D3D0FFF7ECFBD0E703467AE703200E
:202440003EE700BF24010020BF28002050030020C0280020D602002008B500F077F880B28B
:2024600008BD00BF00F004B938B54FF08055D5F8B83104205B699847D5F8B83104205B6B0D
:20248000984701280446F7D1D5F8B83140F20140DB699847034B044A9C62936A9B07FCD5CC
:2024A00038BD00BF0020086000200840034B1B68002B0CBF02200120704700BFDC060020F6
:2024C000F8B5038804465BB3B3F5847F2DD1194B1B788B4201D00120F8BD174D2B686BB145
:2024E0004FF080530026154AD3F8CC3157685B680220984739462B6898472E604FF0805369
:20250000D3F8B83140F201409B6A984701210C4B0C4A9962936A9B07FCD50B48FEF756FCDC
:202520004FF4847323800120F8BD002323800320F8BD00BFD7020020DC06002000800240CE
:2025400000200860002008402801002070B52B4B1B686BB12A4900230A4612F8014B002CA0
:202560003CD10133042BF8D125462046294670BD4FF08053D3F8B83104205B6B98470128FD
:2025800037D0FFF771FF1F4A1F4B92681A4210D101221E4BC3F8F02FD3F8F02F002AFBD17E
:2025A00010464FF4807103F095F80122184BC3F8A82203F0ABF80646124A9368DB07FCD51A
:2025C0004FF08053D3F8CC3102205B68556898470446002EC9D103F09DF8C6E700200D4AE2
:2025E000C85402EBC30552F833406D682046294670BD094BDB6B9A07C5D4C2E7DC060020F7
:20260000E006002000800240010000800090024000005042E00200200020084038B5002492
:202620004FF080510E4D0F4AC5F8A842D368D1F8B01123F00103D3604B69312098472246D4
:2026400020464FF4807103F045F80121064BC5F8A812224619780548BDE8384000F094BE21
:202660000000504200800240D70200203C01002010B5074C2378802B00D010BD00F0B8FD10
:202680000346002123700348BDE8104000F0B8BDD70200203C01002008B503F037F800382B
:2026A00018BF012008BD00BF80F31088704700BF827A044B03EBC2035B68181AB0FA80F010
:2026C00040097047E40600202DE9F0434E4F827A0121064685B007EBC20202E0C2E8441FC6
:2026E0004CB1D2E84F3F13F0FF05F7D00325284605B0BDE8F083BFF35F8F4FF08059B37A7F
:20270000DFF8088107EBC3077E60D9F8B431F078DB6B9847B37A08EB03135868D9F8B831CC
:202720005B699847B37AD9F8B82108EB0313526B5868904701280746F4D1D9F8B831DA698A
:20274000B37A08EB031398689047314B314A9F62936A9B07FCD503204FF08051B37A1B0188
:2027600058F80320536923F00F035361B37A1B0158F803301862D1F8C4311F68B37A1B017D
:2027800058F8030033893BB1337A002B35D1737A002B0CBF03240124082322464FF080548B
:2027A000019373681C4900930023B847B37A96F800C0D4F8B471B27871781B01CDF800C070
:2027C00058F803007F6C4FF0FF33B847B37A1B0158F80320536843F002035360B37AD4F8F0
:2027E000C4211B01126958F8030003A990470028F4D1284605B0BDE8F083737A002B14BF74
:2028000003240224C8E700BFE4060020A8CE00000020086000200840006CDC0270B5264DAB
:20282000837A05EBC3025268904201D0042070BD4FF08051214A044602EB03139868D1F8A7
:20284000B8311B6A984701211D4B1E4A9962936A9B07FCD54FF08056D6F8B43160789B6B28
:202860009847D6F8B4314FF4005160789B699847D6F8B431A0789B6B9847D6F8B4314FF4D1
:202880000051A0789B699847D6F8B43120789B6B9847D6F8B4314FF400519B6920789847FA
:2028A0000023A27A05EBC2025360A27ABFF35F8F184605F8323070BDE4060020A8CE00004C
:2028C00000200860002008402DE9F04F9846334D837A164605EBC3056A6885B0904203D098
:2028E000042005B0BDE8F08F4FF080592C4D044605EB03135868D9F8B8310F465B6B984786
:20290000012849D1A37A2749886F05EB0311C9681B01084240D0DDE90E210A44B242B8BF97
:202920003246002A019235D0D8BF0DF10C0A24DD4FF0000B0DF10C0A5E45D4BF002117F8ED
:202940000B10E8580391D9F8C4315B689847A37A51461B01E858D9F8C431DB6898470E9B7F
:202960005B45C4BF039B08F80B30019B0BF1010B5B45A37A4FEA0313DED14FF0805601E006
:20298000A37A1B01D6F8C421E8585146136998470028F5D10020A4E70520A2E7E4060020C8
:2029A000A8CE00000020084038B5654CFDF7FEFBFDF720FD00F050FB00F054FC0021614858
:2029C00000F01EFC00F040F9FDF74AFE00F010FA00F03EFDFDF726FC01F04AF901F086FDA5
:2029E00000F016FB2368022B39DC0822564957480AF040F80021564800F002FC4FF0FF3054
:202A000004F07AFE23680546022B11DCFDF720FC504800F0C3F8FDF72BFE00F03FFC044675
:202A2000E4B2FDF751FE002CF7D1FDF77BFCF4E7494A4A494A4803F057FE4A4803F054FEAC
:202A40002368022BE2DD05B10235284600F090F92368022BDADD444803F046FED6E73E4AB4
:202A60003E493F4803F040FE404803F03DFE2368022BBADD384A3949394803F035FE3C4BE0
:202A80003C48196803F030FE2368022BADDD324A3249334803F028FE374B3848196803F0CD
:202AA00023FE2368022BA0DD2B4A2C492C4803F01BFE334B3348196803F016FE2368022B1D
:202AC00093DD254A2549264803F00EFE4AF6CD312D4803F009FE2368022B86DD1E4A1F49A4
:202AE0001F4803F001FE1A21284803F0FDFD2368022B7FF77AAF184A1849194803F0F4FD86
:202B0000234B2448198803F0EFFD2368022B7FF76CAF114A1149124803F0E6FD1E4803F0D4
:202B2000E3FD2368022B7FF760AF074800F030F92368022B7FF759AF0B4803F0D5FD54E787
:202B40005C0100206001002014110020341D00202402002000D30000C8CE00000CCD000039
:202B600014CD00008CCF000020D00000D0CE000054D2000000CF000070D1000010CF000076
:202B800000D100001CCF000028CF000044CF0000AC28002064CF000074CF000010B50446F6
:202BA000006830B1002100F02BFB54F8040F0028F8D110BDF0B50388054683B033B14A2B71
:202BC00018D188291BD0012003B0F0BD1B4800F0D9FC044630B1A168201D00F0C3F924681E
:202BE000002CF8D10122164B1A704A2301202B8003B0F0BD002303202B8003B0F0BD0F4891
:202C0000019200F0BFFC04460028EED0019A031D9A4205D02468231D002CE6D09A42F9D186
:202C2000084E2146054800F0FBFCD4E90523376832600BB1E06998473760D6E7F40600203B
:202C4000C32800208408002010B50024054B06481C7000F093FC2146BDE81040034800F094
:202C6000CFBA00BFC3280020F40600204C010020F8B50E4C0E4D27782E680446C0E90623C7
:202C8000466137B981602146BDE8F840094800F07BBC094B04302B6000F064F921462E60AB
:202CA0000448BDE8F84000F06FBC00BFC328002084080020F40600204C01002070B50C4B57
:202CC00004461B782BB92146BDE87040094800F05BBC094D094B2E6804302B6000F04CF9EB
:202CE00021462E600348BDE8704000F04DBC00BFC3280020F4060020840800204C01002049
:202D000010B50A4B04461B783BB9C0E903332146BDE81040064800F083BC043000F04EF9A5
:202D20002146BDE81040024800F07ABCC3280020F406002038B50C4B04461D786DB90B4806
:202D400000F020FC38B1A04202D10BE0844209D000680028FAD1012038BD0430BDE838407D
:202D600000F014B9002038BDC3280020F406002000B58BB002462821684604F079FF694612
:202D8000024803F0B1FC0BB05DF804FBC0CF000028B32DE9F041002504460126114FDFF8BC
:202DA000488065B1EB070FD53846217803F09CFC082E12D0013501360134002DF2D1384695
:202DC000217803F091FCF5E7404603F08DFC3846217803F089FC082EECD1BDE8F081034819
:202DE00003F082BCD8CF0000D4CF0000C4CF0000704700BF10B5FDF743FB0B4B1A68D2E9C5
:202E0000003192680B44191A52B1D2E9003423441B1A9268994228BF1946002AF5D1431811
:202E2000024A136010BD00BFFC060020F80600202DE9F8430388054653B3592B2BD18729AA
:202E40002ED082291FD14FF000092B4FDFF8AC803C68C4B1002603E0A36826469BB11C46CD
:202E6000204600F0E7FA0028F6D022468821E06800F08AFA00282BD0404600F0B7FAA3680B
:202E80002646002BEBD159232B800120BDE8F883194A1360F7E700232B800320BDE8F883B2
:202EA000154F0020396819B9EDE789680120D9B1CB689342F9D000B139608B68002BE2D0C0
:202EC000D86890420BBF9B6819468B609B68F5E7A368E0606EB1B3603B68C4F808902BB19A
:202EE000FFF788FF3C68B4E73960CCE7044A1360C9E73B60F1E700BFFC0600206001002084
:202F0000F806002010B50446104800F06FFA1049E3680A684BB142B194420FD0134601E0DF
:202F20009C420BD09B68002BFAD10A4BA2601B680C60E360BDE81040FFF75CBF054B1B687D
:202F4000E360BDE81040FFF755BF00BF60010020FC06002084080020014800F047BA00BF28
:202F60006001002010B5044600F04EFA2046BDE81040FFF7C7BF00BF10B5044600F04CFAAE
:202F80002046BDE81040FFF7BDBF00BFC068B0FA80F04009704700BF024B1868003818BFC8
:202FA00001207047FC060020024B186808B1024B18687047FC060020F806002010B5124BAB
:202FC00004461968814214D00B462BB19A68A24206D01346002BF9D10023C4E9023310BD76
:202FE000A2689A6049B1FFF705FF0023C4E9023310BD82681A60002AF5D10022034B1A60C9
:203000000023C4E9023310BDFC060020F8060020034A04499079D37903EB00230B8070475C
:2030200014110020AC28002010B541600446FDF74BFA206010BD00BF10B50446FDF744FA21
:20304000D4E900316FF000420B44C01A90422CBF0020012010BD00BFFDF73CBA10B5084C2B
:20306000206858B1D0E90131002222609847236823B1BDE810401868FDF72EBA10BD00BF15
:20308000000700202DE9F84FDFF8C8800546D8F800400E46844257D0002C43D0234601E068
:2030A000002B3FD01B689D42FAD1002B3AD02A4FAB7BD7F8009053B30023AB73002C45D0EE
:2030C0004FF0020A4FF0010BA54211D0A37BDB070ED5A36863B12A4687213C6084F80EA0B2
:2030E00004F10C0098470238012828D984F80EB02468002CE8D1AB683BB1B54205D00022F4
:2031000083213D6005F10C009847D8F80040A5420AD02CB12368AB420CD01C46002CF9D133
:20312000C7F80090BDE8F88F2B68C7F80090C8F80030F7E72B682360C7F80090F2E72146BF
:203140002046FFF79FFFD3E72346AEE7AB68002BD3D1E5E7880800208408002038B58368DB
:203160007BB104460220A07309480D46046004F10C0098470238012804D9832D02D00123D6
:20318000A37338BD21462046BDE83840FFF77ABF840800200022F8B51249134B0C681A70D9
:2031A000D4B101250227114E01E02468A4B1E37B002BFAD0A36804F10C00E581002BF4D066
:2031C000002282213460A77398470238012804D9A5732468002CEAD1F8BD21462046FFF75A
:2031E00051FFE2E788080020C728002084080020024B1878421C1A70704700BFC528002003
:20320000F8B5164A1568854207D0044635B12B4600E01BB11B689C42FBD1F8BD002CFCD05F
:2032200025600126146000220D4DA3682F68A673A2815BB10A4602212C60A17304F10C00F4
:20324000812198470238B04202D9A6732F60F8BD21462046FFF716FFF8E700BF8808002063
:203260008408002000234FF08A0C074A10B4074813700749074A084C80F800C00B701360A8
:20328000236010BC704700BFC4280020C5280020C628002084080020880800202DE9F84395
:2032A0002E4D2B78FBB92E4E3378C3B12D4C2E492278013B02EB4200013202F01F022270D4
:2032C000DBB201EB800211F820803370D2E9017464B1B8F1810F1DD0A27BD2071CD42878B6
:2032E0001844BDE8F883FFF755FFDCE71F4A146854B9F4E7A37BD90704D53A464146204634
:20330000FFF72CFF24681CB32B78002BF2D0FFF741FFEFE70122A273D4F80890B9F1000F40
:20332000DDD00223A373124B3A4641461C6004F10C00C8470238012806D9B8F1830F03D065
:2033400001223378A273CAE721462046FFF79AFE337828781844BDE8F88300BFC7280020E9
:20336000C6280020C4280020040700208808002084080020024A034B10781B7818447047E4
:20338000C6280020C728002030B40F4C94F800C0BCF1200F15D005460C4B00201B786344C8
:2033A0000CF1010C84F800C003F01F03084C03EB430304F8231004EB8303C3E9012530BCC8
:2033C0007047012030BC7047C6280020C42800200407002038B5837B034CDB07256801D5AE
:2033E000FFF7BCFE256038BD8408002018B1837B013B012B00D970470123024AC37313700F
:20340000704700BFC728002010B541600446FDF737F8206010BD00BF10B50446FDF730F81D
:20342000D4E90021C2F1010303448B4284BF5218226010BD10B50446FDF722F8D4E90032DB
:20344000C3F10103184482422CBF0020012010BD074B82B001AA9A42019304D9CD2103F836
:20346000011B9342FBD10021024802B0FFF7C8BEDC2800207001002038B5124CFDF724F9E5
:203480002378114DCD2B08D0AC4202D30EE0AC4212D014F8013FCD2BF9D1AC4202D30BE026
:2034A000AC4209D014F8013FCD2BF9D0FDF70CF9AC4203D2281B38BDFDF706F94FF0FF30E3
:2034C00038BD00BFDC2800200050002070B5038804463BB1912B0ED11F48FFF757FD70B949
:2034E000012070BD4FF4A0611B48FFF73BFD91232380012070BD00232380032070BDFFF7F8
:20350000BBFF164E164B051EA6EB030615DB002E13DBB5420DDD134B1B68002B09DD124A34
:203520001249134803F0E0F832462946114803F0DBF80948FFF720FDD9E70A4B1B68002BDD
:20354000F7DD094A09490A4803F0CEF832462946094803F0C9F8ECE78C0800200050002004
:20356000DC2800205C010020ECCF0000F4CF000014CD000024D00000F8CF0000002303600A
:20358000704700BF006870470368D3B110B4002400E0134699420ED01A681C46002AF8D1F6
:2035A00000230B600368C3B11A461B68002BFBD1116010BC70470A686CB1226000221A6023
:2035C000EEE700230B6003684BB11A461B68002BFBD1116070470260F0E70160E9E7016054
:2035E000704700BF30B405684DB12B46002400E01346994207D01A681C46002AF8D10D6042
:20360000016030BC70470A683CB1226000221A6005680D60016030BC70470260F6E700BF4D
:2036200003688BB110B4002400E0134699421A6804D01C46002AF8D110BC70472CB122605A
:2036400000221A6010BC704770470260F8E700BF03682BB100201B680130002BFBD17047CB
:203660001846704700B10068704700BF10B5044642880021406809F0EFFA23886288A06885
:203680000021BDE8104003FB02F209F0E5BA00BF30B44588ADB10022436802E00132AA42EE
:2036A0000CD019460C780133002CF7D101230B700588806802FB050030BC7047002030BC5E
:2036C00070472846F8E700BF10B4448882685CB18A420DD00023B0F800C001E0914208D0E0
:2036E0000133A3426244F9D14FF0FF3010BC704700234268D15C0029F6D00021D1540846D3
:2037000010BC704783688B4208D84288008800FB023081422CBF0020012070470020704792
:203720004188034649B100205B68194413F8012B02B901308B42F9D170470846704700BF08
:203740000023013A0160027143718371704700BF8179427990F804C0521A12EA0C0F03464C
:2037600006D000684A1C02EA0C02405C9A7170474FF0FF30704700BF10B5044690F84CC0C6
:2037800023460CF1010C8021064A203084F84CC0FFF76EFA044B2246BDE810400020197832
:2037A000FFF7F2BD79370000C8280020F8B50388044633B1B3F5867F08D182290AD0012012
:2037C000F8BD4FF4867323800120F8BD002323800320F8BDFEF760FFBFF35F8F0022114B6F
:2037E0001E681A60BFF35F8F0F4DFEF75DFF28680028E6D00D4F03E055F8040F0028E0D097
:2038000090F8453026FA03F3DB07F5D5FFF792FA0028F1D02B683A4618460221FFF728FAD2
:20382000EAE700BFA808002014000020493800000146034A034813680B431360FFF7D6BDCF
:20384000A80800208001002070B50446FFF772FA00B970BD04F120063046FFF76BFA054609
:2038600094F84500FDF724FB48B994F8443063B9002DEED13046FFF743FA0D4B11E0012840
:20388000F6D194F84430002BF2D1002DE1D00025234630467E21074A84F84C50FFF7E8F9B2
:2038A000054B22462846BDE870401978FFF76CBDCA28002079370000C92800202DE9F843B9
:2038C000FFF796FC224B234D1870FFF791FC224B224C1870FFF78CFC0023214A21496A60D5
:2038E0002268AB6008704AB34FF0805801261E4FD8F8B431916C92F845009B6B41F08C09C6
:2039000098472368494693F84500FDF795FA2268D8F8B43192F8450006FA00F2C7F8E0209C
:203920001B6B98472368A96893F8453054F8042F06FA03F30B43AB60002AD9D10B48002170
:20394000FFF75EFCBDE8F843024800F071B900BFC92800209C080020CA28002014000020F9
:2039600031380000C8280020002002408001002070B504880646672C1BD0792C33D05CB399
:2039800000233380032070BD00251E4C1E49236809785A1C22601D4A2846D554FFF7F4FC23
:2039A0001B4B2A4685211868FFF7EEFC30B300232360184C134D06E00A28E5D00D28E3D029
:2039C0002B687E2B15DD2046FFF7C2FE431CF3D167233380012070BDFFF70AFC0A4B094A4B
:2039E00018701460E5E7852901D0012070BD054CDDE7064A591C2960D054E4E77923338091
:203A0000012070BD2C090020CB280020AC080020840800203009002008B50549054880221D
:203A2000FFF78EFEBDE8084000210348FFF7E8BB38090020300900209001002010B1837AE9
:203A4000012B01D901207047FEF73EBE10B1837A012B01D901207047FEF7E0BE10B5044659
:203A6000FEF726FE38B10123E178044A8B40C2F8A030002010BD042010BD00BF0020024025
:203A800001460123C978034A8B400020C2F89030704700BF0020024010B584B08DF80F1053
:203AA00018B1837A0446012B02D9012004B010BDFEF7FEFD50B1002301222046CDE90033C7
:203AC0000DF10F01FEF700FF04B010BD032004B010BD00BFB8B170B5837A0446012B82B0CD
:203AE00002D9012002B070BD0D461646FEF7E0FD58B10023324629462046CDE90033FEF713
:203B0000E3FE02B070BD01207047032002B070BDB8B170B5837A0446012B82B002D90120DC
:203B200002B070BD0E461546FEF7C2FD58B1002233462046114600950192FEF7C5FE02B050
:203B400070BD01207047032002B070BDC20709D5134B5A78DAB101221B78124902FA03F3F9
:203B6000C1F8A030830711D50D4BDA783AB101229B780C4902FA03F3C1F8A03070470122D7
:203B80009B78084902FA03F3C1F89030704701221B78044902FA03F3C1F89030E2E700BFA9
:203BA0005CCD000000200240C20709D5134B5A78DAB101221B78124902FA03F3C1F890309C
:203BC000830711D50D4BDA783AB101229B780C4902FA03F3C1F89030704701229B780849AC
:203BE00002FA03F3C1F8A030704701221B78044902FA03F3C1F8A030E2E700BF5CCD000064
:203C00000020024038B54FF08055084CD5F8B4312078DB6B9847D5F8B431A078DB6B98478F
:203C2000BDE838400320FFF7BFBF00BF5CCD000001460148FFF7A8BCB809002038B50546E5
:203C40000748FFF79FFC48B10446A068284002D0636803B198472468002CF6D138BD00BF6E
:203C6000B80900200148FFF789BC00BFB809002008B50448FFF7FAFCBDE808400248FFF71D
:203C8000F5BC00BFAC010020A00100200148FFF747BD00BFA001002038B50F48FFF7F8FC35
:203CA000044680B10D48FFF7F3FC0546206060B100F00EFB034605F19C0105F18200A5F889
:203CC000803000F0A5FB204638BD21460248FFF7FBFC2C46F7E700BFA0010020AC0100200E
:203CE000006800F19C01823000F092BB10B5044607482146FFF706FD00B910BD21680548C5
:203D0000FFF7E2FC2146BDE810400148FFF7DCBCA0010020AC01002010B504460948214647
:203D2000FFF7F0FC00B910BD2468B4F88010204600F098FA04F19C0104F18200BDE810406D
:203D400000F078BBA001002038B503460F4D1048002B18BF1D46FFF715FC58B10446284668
:203D6000211D00F0D9FB40B92046FFF77BFC04460028F4D14FF0FF3038BD064A064B906842
:203D8000201A801003FB00F038BD00BF70D000007C0F0020B8010020ABAAAAAA2DE9F04103
:203DA0001648FFF7EFFB804620B30024144F154E154D08E0204606F0E7F904464046FFF7F6
:203DC00051FC804698B1B368A8EB03039B1005FB03F3FB5C002BF1D108F10401002CE9D10A
:203DE00040460C46FFF73EFC80460028EBD12046BDE8F08104462046BDE8F0817C0F002024
:203E00006C0F0020B8010020ABAAAAAA2DE9F04705460F46214CDFF888A0DFF88890DFF866
:203E2000888004F1200654F8041FB9B18A68AAB1A5B1D9F80830EB1A4FEAA30C0C3308FBAB
:203E40000CFC0BD04868CB6800FB0C3030B109681AF80C300B41DB0700D59047B442E2D142
:203E6000C5B1104B104A9B68EB1A9B1002FB03F300220E490E48CA5429460AF80320FFF7FA
:203E8000CFFB0FB9BDE8F0872946BDE8F0470548FFF71ABC4FF0FF33EAE700BF480F002098
:203EA00054100020B8010020ABAAAAAA6C0F00207C0F0020034638B10268072A04D80C48B9
:203EC00050F82220934210D00A480268072A0AD810B499600649541C1A60046041F82230EF
:203EE000012010BC7047002070470120996070474C0F002050100020F8B506460846174FCE
:203F0000174C184D2EB358B1F3687168C01A90FBF1F1481C1BD0B86801EB410100EB81006B
:203F2000FFF7A0FB88B1BB68C31A9B1004FB03F35A1C0AD07168F06801FB030028B1EB5C77
:203F400032681341DB07DDD5F8BD0020F8BD0020E6E73046FFF786FB3046F8BDB801002077
:203F6000ABAAAAAA5410002010B504461048FFF709FBB8B10F4B9968411A94B111F10C0F32
:203F80000FD00D4B891001FB03F36068E16800FB031038B109492268CB5C1341DB0701D548
:203FA00010BD002001462046BDE81040FFF7A4BF7C0F0020B8010020ABAAAAAA5410002068
:203FC0002DE9F041002844D00D46424B0446002908BF1D462846FFF7B7FE431C2AD06268A5
:203FE000E36802FB00332BB33B4B22681B5C1341DF071FD500272846FFF7A6FE461C2CD026
:204000006268E668002100FB0266304608F024FEFEB1E3686268F31A93FBF2F35A1C06D0E4
:2040200001222D492468C85CA2400243CA543046BDE8F0812846FFF787FE0130DAD1274832
:20404000FFF76EFB0028D5DCFFF7A8FE07460028D1D100263046BDE8F081DFF88080404666
:20406000FFF716FB0646B0B131461D48FFF78CFAD8F808302946301DF51A00F049FA15F128
:204080000C0F21D100210E460846626808F0E4FD3046BDE8F081002FDBD03846FFF754FE81
:2040A000411C0CD0D8F8086000EB400006EB800600213046FFF7AAFE002ED5D1C9E73146BD
:2040C0003046FFF7A3FEB2E7064EA81006FB00F096E700BF70D0000054100020B801002064
:2040E0007C0F0020ABAAAAAA10B504460846FFF72BFE84B1431C02460DD06068E36800FB29
:20410000023038B1054B21689B5C0B4113F0010F08BF002010BD002010BD00BF5410002071
:2041200030B319B3C3684268CB1A93FBF2F35A1C1CD010B54FF0010E0F4CD0F800C0E25C0D
:204140000EFA0CFC22EA0C02E254C2684368891A91FBF3F14B1C0CD0084C0268635C0EFA4F
:2041600002F223EA02036354704610BD002070477047704610BD00BF541000206C0F002010
:20418000A8B191B1C2684368891A91FBF3F14B1C0BD0012310B4064C0268605C03FA02F209
:2041A00002436254184610BC70470020704770476C0F0020B0B199B1C2684368891A91FB4B
:2041C000F3F14B1C0CD0012310B4074C0068625C03FA00F022EA00026254184610BC7047C5
:2041E00000207047704700BF6C0F002088B179B1C2684368881A90FBF3F0431C08D0054B08
:2042000000EB4000996811EB800002D00430704700207047B8010020002138B50B4A0C48D2
:204220000C4B0D4D0D4C017011800D481A22198008F012FD2046294600F06AF9294604F1B5
:204240000800BDE8384000F063B900BFB0280020CC280020AE28002070D000006410002098
:20426000F41000202DE9F0410C460021114A124B124EDFF84C80134F0546117012481A22E1
:204280001980318008F0E8FC3846414600F040F9414607F1080000F03BF9802C28BF8024E8
:2042A00029462246094808F0E5FB20463480BDE8F08100BFCC280020B0280020AE2800200D
:2042C00070D0000064100020F410002074100020F8B50E4E0E4D32782B881344802B01DDA1
:2042E0000020F8BD04460B4F394608F0C3FB0A4A33781188E0180B44DBB2F9182A8808F0E9
:20430000B9FB30782B881844F8BD00BFCC280020AE28002074100020B028002010B5144BF4
:20432000144C1B8894F800C0134A63441288DBB213449BB21A18802A17DC013B1BB2002B5C
:204340000EDB0E4A591C03EB000E11447244013B11F801ED1BB2B3F1FF3F02F801E9F6D113
:20436000844484F800C0012010BD002010BD00BFB0280020CC280020AE28002074100020F9
:2043800008490A8882420ADB10B4074C80B22388121A03440A800120238010BC7047002039
:2043A000704700BFAE280020B0280020014B1880704700BFAE280020044A054B12881B787E
:2043C00004481344DBB21844704700BFB0280020CC28002074100020004870477410002088
:2043E000014B1888704700BFAE280020054B064A18781288054B10441B88C0B2184480B254
:20440000704700BFCC280020B0280020AE28002010B50C461A22054908F02CFB2046BDE859
:2044200010401022024908F025BB00BFF41000206410002010B50C461A220146044808F082
:2044400019FB2146BDE810401022024808F012BBF4100020641000200246024B012023F822
:2044600012107047F4100020014B33F810007047F410002008B5044B0D3803EBC00000F0EE
:2044800047F8012008BD00BF64100020024B0D3803EBC000704700BF6410002001490248C6
:2044A00000F03AB870D000006C10002070B505460D480E46FFF766F868B10446012D0CD064
:2044C0001DB963680BB1984730B92046FFF7CAF804460028F2D1002070BDA368002BF4D01D
:2044E00030469847F0E700BF10110020054B10B51B689847044B5B689847BDE81040034BE5
:204500005B681847DCCD000000D1000070D10000082208F0AFBA00BF082208B508F076FA25
:20452000B0FA80F0400908BD10B50948FEF7C6FB0848FFF719FD48B1064C037A01465B08B9
:2045400003722046FFF7D8FC0028F6D110BD00BFDC110020C401002001460148FFF7C4BD42
:20456000C401002080B110B50446FBF789FF2368C01AB0F5963F05D2207A032894BF0020AE
:20458000012010BD002010BD0020704770B50546144689B1022907D006290CD1BDE8704002
:2045A00001463548FFF7A0BD01463348FFF79CFD064600282ED170BD01462F48FFF794FDAE
:2045C0000646002831D0FBF75BFF337A30602344102BA8BF10233372FBF752FF3368E40139
:2045E000C01AB0F5963FA4B211D2337A042B35BF19230A234B215A2103FB04F4B2881F4B74
:2046000001FB0244A3FB04346409B48070BD19234B21F1E7FBF734FF337A30602344102B30
:20462000A8BF10230C343372D6E73346082229461148FFF7C5FC06460028BCD0B0F906303D
:20464000B3B16FF03B0083426FF05801A8BF03468B42B8BF0B464FF470625A331BB2B2FB7E
:20466000F3F3B3F5C07F28BF4FF4C073B380AAE74FF48073FAE700BFC40100201F85EB51B1
:2046800038B505460420FFF7EFFE044629461C4824B2FFF729FD78B15A21B0F9062004EB6A
:2046A0008404640001FB0244164B83FB0423E417C4EB6314C48038BD034608222946104832
:2046C000FFF77EFC0028F6D0C480B4B16FF03B03A3426FF05801A8BF23468B42B8BF0B4634
:2046E0004FF470625A331BB2B2FBF3F3B3F5C07F28BF4FF4C073838038BD4FF48073FAE765
:20470000C40100201F85EB5138B50948FFF72CFC60B10446064D21462846FFF701FD21469A
:204720002846FFF7E9FB04460028F4D138BD00BFC401002010B500210548FFF7BBFBBDE8DD
:20474000104000234FF4E131024A0348FEF790BAC401002029450000DC110020F8B5FBF7BC
:204760008FFE104E0025344607460D20FFF78EFE2146FFF7D1FE103420B90135102DF4D132
:204780000020F8BD0720FFF76FFE06EB05152B7B8342F5D1A868381AB0F5206F8CBF00207D
:2047A0000120F8BDFC11002070B5174E002435460D20FFF76BFE2946FFF7AEFE1035F8B93A
:2047C0000134102CF4D10F2406EB04152846103D013C1022294608F04DF9002CF6D1072075
:2047E000FFF742FE3073FBF74BFE03460D20B360FFF74CFEBDE8704001460348FFF788BEB9
:20480000002CE1D1EBE700BFFC11002000B5864630B1084611461A4673465DF804EB184739
:204820005DF804FB30B591B0FFF7C6FD0446FFF7D7FD6A460146204600F0B0FA00283ED004
:204840000446FFF79DFDD0B39DF810100C20FFF703FE08209DF81310FFF7FEFD9DF8173076
:204860008BB1BDF81C5000F0EFF8854205D04FF6FF73BDF81C209A4221D169469DF8170097
:2048800000F09CF9B0B10D2002A9FFF7F3FD9DF815303BB14FF6FF710720FFF7DDFD20469C
:2048A00011B030BD9DF81A100720FFF7D5FD204611B030BD69460E20FFF7DCFDE3E74FF0D3
:2048C000FF34ECE7F8B505460C2014460E46A84700232074A374002E35D0E37463750920B8
:2048E000A847002702460123A275237607206774A847A07600F0A8F803460A20E383A84727
:2049000001280CBF3B460323637600F09DF803460B20A383A84701281AD066B90323E37565
:20492000637E022B0CD0E37DA3F10203B3FA83F35B092375F8BD0223E375637E022BF2D172
:2049400001232375F8BD0820A8476675E074C6E7E775E5E730B591B0044600F075F84FF6B9
:20496000FF7398425ED040220021684608F074F92E4B1A7832B36CBBFFF790FD01466A4696
:204980002B48C9B2FFF79EFFFFF788FD00283DD04FF6FF73ADF800300D20FFF777FD01467C
:2049A00002A8FFF7B5FDFFF707FD0E90FFF718FD034668460F9300F013F90546D4B9284627
:2049C00011B030BD01221A70FDF746FD194B1870002CD1D00720FFF747FD0028CCD1154D04
:2049E0002978D9B189B20720FFF736FD2B7801332B70C1E7FFF792FCA0B1FFF7EDFC0146EC
:204A0000684600F03DF9284611B030BD0E20FFF73DFD01466846FFF77BFDBDE701231946BE
:204A20002B70E0E74FF0FF35C9E700BFCD28002069440000CE2800200120FFF78BBF00BF3A
:204A40000020FFF787BF00BF014B1888704700BFD402002000283ED0037A30B4022B10D03F
:204A60000378022B15D00379B3B10024C37913F0030318BF012301B10C6002B1136030BC35
:204A80007047C579447A037965B90CB9012BF2D0DBB100231C46EEE7447A14F0030418BF90
:204AA0000124E3E7C4B1032D37D1032C2ED0022C24D143BB022D2DD00123032D24D1A4F102
:204AC0000204B4FA84F46409D5E7023C012C8CBF00240124CFE770474BB9022D08BF0123F7
:204AE000EAD1A4F10304B4FA84F46409C3E7032D01D0022D02D123461C46BCE7002BC8D1ED
:204B0000022DDAD1EDE701230024B4E7002BC0D10123D4E701231C46ADE7022DC7D1002B5D
:204B2000F1D1022C4FF00103DBD11C46A3E700BF30B50D46044600210622284683B008F087
:204B40008BF8637DD9075CBF01232B70237E012B23D9694601AA04F11000FFF77BFF009B05
:204B60000BB10223EB70019B0BB102236B70E37D03F00303022B03D0032B14BF00230823F9
:204B8000AB70637E03F00303022B03D0032B14BF002308232B7103B030BDE37D9A0706D0BE
:204BA000637E9B0703D0E28BA38B9A4202D000232375CEE701232375CBE700BF02280CBFC4
:204BC000012307230B441A781846FF2A03F1FF3303D18142F7D1012070470020704700BF2C
:204BE00000B583B06946FFF7A3FF9DF800309DF801209DF8020002339DF8031013440344F9
:204C00009DF804209DF805000B441344184403B05DF804FB4378827890F800C0DB0012014D
:204C200002F0100203F0080313430CF0070290F803C0134302794FEA4C1C0CF0200C92019F
:204C400043EA0C0302F0400213430B704379827990F809C003F00103520043EA8C1302F004
:204C6000020290F807C01343027A4FEA8C0000F00C001201034302F0300213434B70704709
:204C800030B50C46054683B06946FFF751FF214605F11000FFF7BEFF9DF80030012B02BF98
:204CA000AB7E0322A3709DF8013018BF0222022B08D1A98B531CA154A98BDBB20232090A2C
:204CC000D2B2E1549DF802306BB303F1FF3E1344AE44DBB2944601321EF80119D2B29A4292
:204CE00004F80C10F6D19DF80320022A08D1E98B5A1CE154E98BD2B20233090ADBB2A15437
:204D00009DF8040088B100F1070C1844AC44C0B21A4601331CF801E9DBB2984204F802E028
:204D2000F6D103B030BD1346DDE7184603B030BD034600B593F800C085B00CF0070E8DF8DD
:204D400004E0CCF3C00E5B788DF805E0CCF3001E8DF806E0CCF3401ECCF3801C8DF808C098
:204D600003F0010C8DF809C0C3F3400C8DF80AC0C3F3810C8DF80BC00846C3F3011C0A22B4
:204D80009B0901A98DF807E08DF80CC08DF80D3007F070FE05B05DF804FB00BF012943DDCF
:204DA0002DE9F041144686B00F4603A90546FFF7BFFF0A2203A904F1100007F05BFE9DF85A
:204DC00011306BB3AE1C03A802AA01A9FFF742FE9DF81380B8F1000F43D0029B002B31D1B6
:204DE000B8F1020FA38367D0B8F1030F4DD09DF81580B8F1000F2CD0019BBBB9A38BE38342
:204E0000B8F1020F4DD0B8F1030F31D0701B3B1A8742C4E90E6300DA002006B0BDE8F08172
:204E2000AB78EE1CA376CEE700207047727816F8023B03EB0223029A9BB2E383002ADFD12F
:204E4000A383DDE7727816F8023B03EB02239BB2C6E71E4904F10800FFF75AFBA4F81E803D
:204E6000D4E720461949FFF753FBA4F81C80BEE706F10800034604F1080213F8011DB34229
:204E800002F8011BF9D10646C0E706F108000346621E13F8011DB34202F8011FF9D1064629
:204EA000A5E70A4904F10800FFF732FB7378237216F8023B6372A9E720460449FFF728FBF7
:204EC0007378237016F8023B637090E770D00000002310B5194A82B004460192ADF8003050
:204EE000FEF7BCFD18B1FE24204602B010BD042220460DEB0201FEF7EDFDC0B920460222CB
:204F00006946FEF705FE034620461C46FEF7B8FD94B99DF80030C22BE6D19DF80140A4F10E
:204F20001404B4FA84F46409204602B010BD2046FEF7A6FDFF24D7E7FF24D5E790FFFF0095
:204F4000052330B583B004468DF80430FEF786FD10B1002003B030BD05460122204601A997
:204F6000FEF7B8FD20B117E09DF80730DB070DD5012220460DF10701FEF7CAFD0028F3D0F9
:204F80002046FEF77DFD002003B030BD2046FEF777FD012003B030BD2046FEF771FD2846B5
:204FA000D8E700BF10B582B0E8B103780446FF2B03D02046FEF742FD10B1002002B010BD27
:204FC0002046FEF75DFDAB2320468DF80730FEF745FD78B12046FFF77BFF0128EED02046A9
:204FE000FEF734FDE9E70B4C2046FEF727FD0028E3D1E5E7012220460DF10701FEF76AFD52
:2050000018B12046FEF73CFDE4E72046FFF798FFF7E700BF84D0000070B5174C002818BFFD
:2050200004462046FFF78CFF40B900252046FEF70DFD00280CBF2846002070BD054620465D
:20504000FEF70CFD06460028EFD1B9212046FEF723FD60B92046FEF713FD0A262046FFF7B9
:2050600037FF731E0028E1D013F0FF06F6D12046FEF706FD3546D9E784D0000010B50446C5
:20508000FFF790FF00B910BD2046BDE81040FFF7C3BF00BF6FF0090C164B1749D3F8B83289
:2050A000164AC3F30463152B88BF203B03EB207301336345B8BF6346152BA8BF152303F042
:2050C0001F0343F4F853A1F86E30136813F002030ABF0B4A40F04060C2F894346FEAD06376
:2050E0006FEA9060074A03F0010300F00100136090607047001000500062084000000940C1
:2051000000002A4300002043C0F38143012B2DE9F04168D0022B03D04FF00042564B1A64FD
:20512000564BD3F8B03F1B0702D44022524B9A664FF400745049524BC1F88040D3F88C332D
:20514000504AC0F38150C3F3C14343F030030128137216D0022841D0002878D0022104208B
:2051600000F0AAFD47F61800454B474AD3F86C33464903F03F03D372A2F87000CB6ABDE8CB
:20518000F08100F0C5FD04460420214600F094FD042000F0BDFDA042FAD10121374A3C4BF1
:2051A000D2F8A80F3B4A84B2DC63C0F307441C645964D2F88438002BFBD04FF08053002586
:2051C000334CD3F8B43165644FF060221B680721000E98474FF48062274B1A640321042021
:2051E00000F06AFDBEE7264BD3F88C23910393D44FF48048204F2849C7F84080CF68C2F377
:205200000334530A27F08F0703F080033C431C43CC60D1F80B40C2F3032C24F00F044CEA78
:205220000404C1F80B40D1F80A3002F0800623F0E70302F06005334302F0060E2B4302F0B7
:20524000010243EA0E031343C1F80A3068E70121042000F031FD43F2BD74862001210C4B8C
:205260000C4ADC6318645964D2F88438002BFBD00022074B5A6475E700A00C4000300050EA
:205280000010005000A10C4000B00C400020094000600C4000008C4300600840174B820352
:2052A000D3F85033C3F38361C3F38F230DD440F30722002A0CDA5B0805D149080ABF0123DA
:2052C0004FF6FF7319460132F5D143EA01407047FBD05B0043F00103B3F5803F4FEA41005C
:2052E00007D340F001010F2986BF4FF6FF730F210123013AEDD143EA01407047001000509C
:2053000030B4134B134CD3F87823D4F8B05F0146E807C2F3035CC2F303430BD4D4F8AC0F00
:2053200040F3032440F30330A44403448CF3040C83F304031B0490B2212943EA0C5340EA11
:20534000030084BF02F08042104330BC704700BF001000500030005030B5054683B008460D
:20536000FFF79CFF5A4C024618215A4800F0D6F9D4F85033D4F85013C3F38703090201F456
:205380004071194340F2FF320023524800912C2100F0DAF9D4F87C231C214E48C2F30D023D
:2053A00000F0BCF9D4F8742314214A4802F0FC3200F0B4F9D4F87023102122F07F4222F4E8
:2053C0004032444800F0AAF92846FFF799FF0C210246404800F0A2F9212D53D9D4F88C33B3
:2053E0003D4AC3F300735B0043F0200382F84930D4F88C33C3F3407343F0100382F849302C
:20540000334C3448D4F89823D10C930D01F4407103F01C030B43C2F381521A43282100F069
:205420007DF9D4F898332C4AC3F301535B0043F06003212D82F84C303ED9D4F88C33C3F352
:20544000C063DB0043F0800382F84130D4F88C33C3F345539B0043F47C43A2F8DC301C4B36
:205460001E49D3F898231003014000F47C120A43184C0821204600F051F94FF480032364A2
:2054800003B030BD22221123134C1F2D84F8492084F84930B4D8002228210E4800F03EF9FB
:2054A000602080214FF47C4384F84C000C4A84F84110A4F8DC30DBE780214FF47C431F2D85
:2054C00082F84110A2F8DC30C9D8054AD0E700BF0010005000A00C4000A10C4000F0C0FF0D
:2054E00000803F40134AD368002BFCD1124A13495368D1F8B01F23F00053490723F007033F
:2055000005D543F0005343F0050353607047106843F00051800741F0040109D043F000536E
:2055200043F007035360136803F00303032BFAD151607047000068420040034000300050F9
:20554000012138B50546304B304A1961D2F89432002BFBD0C0212E4A2E4B1160D3F8B02F0F
:2055600092074BD4D3F8AC3F2B4AC3F3074343F0F00382F856300021234A264B1164D3F8E3
:20558000B44F2046FFF786FD21462846FFF7E4FE40F20E21214AD2F814339BB28B421BD892
:2055A000D2F8BC12D2F8BC3211F0706FC3F30343C1F3036218BF02F1FF32A3F1060118BF39
:2055C000D2B2012992BF7023023303F00F03144988BF1B0113438B702046FFF795FD4FF0C1
:2055E0008053D3F8A0310220DB6898474020012207490C4B0860C3F8942438BD7222064B19
:2056000083F85620B7E700BF001009400000224300600C4000300050006208400010005048
:20562000006008400000604238B5204B0025D3F81C43631C08BF002400F06CF901231C4832
:205640001C491D4AC0F88454CB65C2F80832FFF749FF1A4BD3F880312BB1194B2046D3F83A
:205660000031FFF76DFF0020164B1749C3F88C018B6C164A23F07F6323F4702343F09C7336
:2056800043F480338B645368C3F30133012B08D1536823F0407323F4403343F40031516063
:2056A00053600B4AD368002BFCD138BD001000500000604200600C4000200443000028433A
:2056C00000002043002008400020034000000940000068424FF6FF3C30B40B4C120263690E
:2056E00002F47062C0F3871023F48065090A03EA0C03024343EA014342EA014265616361DE
:20570000A26130BC704700BF00800240EFF3108072B67047EFF3108062B67047F8B50646D7
:205720000D461746FFF7F2FF064C2368002BFCD001237751236000B1F8BDBDE8F840FFF756
:20574000E9BF00BF00800C4038B50F2BBDF810C088BF103B00EB410088BF120C0CFA03FC42
:205760004CEA024594BF00F5007400F50174FFF7CDFF064A1368002BFCD0012325601360E6
:2057800000B138BDBDE83840FFF7C4BF00800C400F2BF8B51E46174600EB010503D9A3F1F8
:2057A00010060235170CFFF7B1FF0A4C21680029FCD001232D882360ADB220B13D4045FAB7
:2057C00006F080B2F8BD3D40FFF7A4FF45FA06F080B2F8BD00800C404BF69A1C2249D1F8C3
:2057E0009402D1F81823C0F30333C2F30F32624502D04FF0FF307047D1F81823120F0B2A38
:20580000F7D0013B0E2BF4D801A252F823F000BF4D58000065580000F35700004D58000070
:20582000F3570000F3570000F3570000F35700004D580000F3570000F35700004D58000062
:20584000F3570000F35700005958000010F4000F0CBF04200720704710F0807F0CBF052034
:205860000620704702207047001000504BF69A1C274A2749D2F81833D2F8A0001A0F030689
:20588000D1F8183348BF0020C3F30F3358BFC0B2634515D04BF6BE118B420BD04BF6413154
:2058A0008B4203D04BF620318B4206D12AB90A3040B270471AB3022A1ED04FF0FF30704740
:2058C000D1F818331B0F0B2BF1D0531E072BF4D801A252F823F000BFFF580000BB580000FB
:2058E0000D590000BB580000BB580000BB5800000959000003590000143040B270470A2034
:205900007047163040B270471520704714207047001000504BF69A1108B5094AD2F8183399
:20592000C3F30F338B4200D0FEE7D2F818331B0F0B2BF9D0FFF79AFF1528F5DD08BD00BF8D
:205940000010005070B50646FFF7E0FE0546064C2368002BFCD0B0470123236005B170BD02
:20596000BDE87040FFF7D6BE00800C4001280BD028B9084A136823F0050313607047012262
:20598000054BC3F880217047024A136843F005031360704700000940000004432DE9F04F93
:2059A000814B83B01C6814F0020408D008227F4B7F49804808639A7103B0BDE8F08F054666
:2059C00000F0B6F97C4B8446D3F8B46F3217B70202F1010208D4C0F13E03DB10082BA8BF5E
:2059E00008239A42B8BF1A46744B754FD3F8B812724BC1F30461152988BF20390A446FF050
:205A00000901D3F83C316F48C3F30443152B88BF203B8A42B8BF0A46152AA8BF152202F04C
:205A20001F0141F4F851A7F86E10D0F8240210F0030118BF0121400748BF41F002010DB180
:205A400041F00401594D95F90700ACEB0000042802DCA879884278D0BCF10F0E00F187803F
:205A60000EEB0E1EBEF5E06F4FEA2E286FD34FF4E060554F0190B84600F1A04000F6B440BD
:205A8000D8F80080006811F0040BA8EB000018BFC0F307295FFA80F818BFC84411F0020A30
:205AA0001CBFC0F30749C84411F0010969D10198AEEB000008FB00F080304FEA102E3F68C4
:205AC000F8B2BBF1000F02D0C7F307284044BAF1000F02D0C7F307484044B9F1000F01D07F
:205AE00000EB17609B1A012BB8BF0123342202FB03F3F6B206FB03F37044B3FBF0F64FF653
:205B0000FF72964228BF16460CF3070CA97185F807C0AE802D4B1E2E9B682B6023D9B6F562
:205B2000007F3AD37608B6F5007F04F10104F9D20F3E274A360944EAC606324300211C4B78
:205B40001A63596303B0BDE8F08FAE88E2E7214F08F101082EF0FF00019007EB88008046D6
:205B6000043807468CE71F231B4AAB80E6E74FF0000E184F01F0040B01F0020A01F00109DE
:205B80009DE708EB1060DDF80480AEEB080E0EFB00F080304FEA102E91E70D4AA6F10F037E
:205BA0001B0942EAC302C9E700000940FC12002000100940FDFDA4000030005000100050D2
:205BC0000062084000200840B81300500020094000E7A4809C13005008E7A48038B5154BC5
:205BE0005D6BACB204B938BD00F0A2F8124991F90730834205DD6FF07F039842B8BF1846F0
:205C0000C8718888A04201D98D8038BD0B4B0D689B68221A02335B1B1F2B28BF1F234FF610
:205C2000FF755B0822FA03F31C18AC4228BF2C468C8038BD00100940FC120020002009400F
:205C40001A4B9B6A03B97047194AD2F8B41F01F04060B0F1406FF6D010B416480468A40787
:205C600014D4D2F8B04FA40710D40468D2F8AC2F14F0050FC2F3035202F11C024FEA021253
:205C800006D0934202D224F00504046010BC70479342FBD90A0158BF44F001044B01054BE1
:205CA00058BF44F004041C60F0E700BF00500940003000500000094030B50D46C1070446D3
:205CC00083B005D4A2070DD4630715D403B030BD0023A9B2012200910C481946FFF734FD2F
:205CE000A207F1D5A9B201230091022200210748FFF72AFD6307E9D5ADB202230C22002179
:205D000002480095FFF720FD03B030BD00A00C4008B5042807BF1D234FF0C0421C234FF057
:205D2000805234210148FFF733FD08BD00A00C40084B094A186B127B9B6A52B2A3F5407312
:205D400002FB03F340F31000A0EB231080300012704700BF0050094000130050044B9A68CA
:205D6000D86899688A42FAD1000C40EA0240704700200940034B9968D8689A689142FAD184
:205D8000704700BF00200940102970B50C4605460CD90B4E01E0102C0BD9D5E900301022CA
:205DA00031469847103C0028F5D070BD08460029FBD022462B6868680149BDE8704018471C
:205DC000D8D000002DE9F04F804608788FB00192002800F0FF8089464FF0000B04E019F809
:205DE000010F002800F0F2802528F8D1494500F08A81D8E90030A9EB010422469847002871
:205E000040F0658299F80030A344002B00F0E18099F8013009F10109002B00F0DA800025E7
:205E2000A3F12002102A0AD8DFE802F0CD0909CA09090909090909C709C40909BF00A3F1F6
:205E40003102082A40F252812A2B00F05F8100242E2B00F03D814FF0FF316C2B00F02E81E3
:205E6000682B00F061817A2B05D199F8013045F0600509F10109782B7CD8DFE813F0AA0077
:205E80007B007B007B007B007B007B007B007B007B007B007B007B007B007B007B007B0052
:205EA0007B007B007B007B007B007B007B007B007B007B007B007B007B007B007B007B0032
:205EC0007B007B007B007B008D027B007B007B007B007B007B007B007B007B007B007B00FE
:205EE0007B007B007B007B007B007B007B007B007B007B007B007B007B007B007B007B00F2
:205F0000AE027B007B007B00AB02A802A5027B007B007B007B007B007B007B007B007B000F
:205F20007B007B007B007B007B007B007B0096027B007B007B007B007B007B007B007B0094
:205F400093027B0090028702A2029F029C027B0087027B007B007B007B009902B702790076
:205F60007B007B00B4027B00B1027B007B008A0245F4407505F4E063B3F5806F09F1010900
:205F800000F087814CD9B3F5C06F00F0D780B3F5E06F22D1019A136804320192C3F800B092
:205FA00099F80000A8B149461EE745F0100519F8013F35E745F00105F9E745F00605F6E774
:205FC00045F00805F3E745F00205F0E789457FF410AF58460FB0BDE8F08FB3F5A06FDFD1AA
:205FE000012C38BF0124019A013C136804320192EA078DF8203040F13382D8E9003001227C
:2060000008A99847002840F062810BF1010B21464046FFF7B9FE002840F05981A344BFE754
:20602000B3F5807F00F09580B3F5407FB8D10199BA4A0B6815F4804F01F10401B84E01914C
:2060400008BF16460022002B00F098810DF13307394603F00F00305C1B0943EA02731209A1
:2060600001F8010D53EA0200F3D17E1A00F088810336782301F8013C302301F8023C2323AB
:20608000A64201F8033CA1F10307C0F01381E9074FF0000400F1138121464046FFF774FEF3
:2060A000002840F01481D8E90030394632469847002840F00C81B344A34471E799F801304F
:2060C0006C2B00F0098109F1010945F06005D2E699F8013009F10100A3F13002092A40F271
:2060E00002812A2B00F00F818146B4E6002404EB840403EB440419F8013F303CA3F1300293
:20610000092AF4D9A4E699F800307EE6019A09F10109134614680433002C0193B8BF45F0B9
:20612000010599F8003093E699F80130682B00F0018109F1010945F040059CE60122D8E974
:20614000003078499847002840F0C1800BF1010B26E70029B3BF012325F0100503910393AE
:2061600015F40053059305F0E00300F0EA80402B00F0438200F25781002B00F02482202B03
:2061800040F07582019A92F9003004321F4601924FEAE37ABAF1000FC0F2798105F4C0534C
:2061A000B3F5805F00F0C081B3F5C05F00F0DD81B3F5006F00F08F8100230DF13606049307
:2061C0000293DDE902239A422CBF00239B1A41F60802039341F2080305EA0201994200F0CE
:2061E0003581DDE902309142034403D157EA0A0240F0658100273A46059969B1049900297B
:2062000040F0428105F00601022900F061810629454904BF01270A463B449C4294BF0024C6
:20622000E41A15F0010A06D1E80640F1C281039B23445446039337B1D8E9003011463A4632
:206240009847002843D1039D029B102D9B4440F2AA81D8E90030102234499847103D002879
:2062600035D1102DF5D82A46D8E900302F49984768BBD8E900303146029ABB44984730BB66
:20628000039B5B449B46BAF1000F7FF4C0AEA34486E6019A1346176804330193002F62D152
:2062A0000626234F002902DB8E4228BF0E46B4427FF6EDAEE907A4EB06047FF5EDAED8E9D0
:2062C0000030394632469847002800F092804FF0FF300FB0BDE8F08F99F8023045F08005C0
:2062E00009F10209C7E5002202EB820203EB420210F8013F303A2F2B40F2A580392BF3D995
:2063000011468146A9E5019899F8023002460432016809F1020901929FE500BF90D0000053
:20632000A4D00000D4D00000C4D00000E8D00000CCD0000099F8023045F0200509F102093B
:2063400099E5402B00F062815DD8002B00F04781202B40F07A81019ADDF814A0134604333F
:20636000177801931AE73B78002B00F062813B4613F8012F002AFBD1DE1B93E70DF13301F1
:206380003023042601F8013C013972E645F42455F0E545F4C855EDE545F4C065EAE545F4A3
:2063A000A065E7E545F4C135E4E545F4B245E1E509F10109EEE545F48135DBE545F40075EA
:2063C000D8E545F40245D5E545F4A135D2E545F48445CFE545F44245CCE545F4E135C9E5DC
:2063E00045F41065C6E545F48065C3E545F48855C0E521464046B344FFF7C6FC00287FF48C
:2064000066AFA344CCE5602B00F0E980802B40F01C81019B073323F00703D3F804A053F8C6
:20642000087B0193BAE6602B00F0CD80802B40F01E81019B073323F00703D3F804A053F8B6
:20644000087B0193A6E61146814614E5039B0027012B38BF0123029A0393D3183A46CBE628
:2064600021464046FFF790FC00287FF430AFD8E90030012208A90BF1010B984700287FF4EC
:2064800026AFA344A3448BE501278C4AC4E67F4205F4C0536AEB4A0AB3F5805F00F0CB8009
:2064A000B3F5C05F00F0BA80B3F5006F4FF00103049317D000230DF13606029381E68049F1
:2064C00015F4804F7F4A4FF0020718BF0A4693E601277D4AA0E657EA0A034FF0000300F03E
:2064E000AF8004930DF13603384651461E46CDE9064B02930A22002383460C4606F002F92F
:206500003032002306F8012D584621460A2206F0F9F8BBF10A0F74F10003EBD2DDE9064BB1
:20652000029B9B1B02934CE657EA0A033FF444AE00233846514604930DF136031E460293CF
:2065400007F00703FF08303347EA4A774FEADA0A06F8013D57EA0A03F2D1029B07469B1BD4
:206560008A4602932DE60027BA4615F480433ED104933B465246554857EA0A019AD00DF1A0
:2065800036010E46029103F00F01415C1B0943EA0273120906F8011D53EA0201F3D1029B9F
:2065A0009B1B02930DE6039B002B3FF462AE1D4659E6214640460492FFF7E6FB049A0028CF
:2065C0003FF439AE83E6019A1346176804334FEAE77ABAF1000F0193BFF6E0AD57E7019A8B
:2065E000DDF814A01346043317680193D6E500213B46524636480491BEE7019AB2F900304C
:2066000004321F4601924FEAE37AC3E5019ADDF814A01346043317880193BFE56B0405D53A
:2066200001213B4652462A480491A8E7012304939FE73B46A0E601233846514604937BE70F
:2066400002930DF136060493BBE505F4C053B3F5805F02D0B3F5C05F1ED0DDF814A00DF193
:2066600036065746CDF808A0CDF810A0A9E505F4C053B3F5805F1ED0B3F5C05F3FF473AF34
:20668000B3F5006F4FF000030ED01F469A4604930DF13606029394E5059B0DF136061F4660
:2066A0009A46029304938CE59A461F4602930DF13606049385E50023E7E700BFC0D0000008
:2066C000B8D00000BCD00000C8D0000090D00000A4D000000AB90020704708B5084611463E
:2066E000FAF782F8002008BD0FB400B583B004AA52F8041B04480192FFF764FB03B05DF84C
:2067000004EB04B0704700BFD401002038B54368044693428CBF154603F1FF352A4600680E
:2067200006F0A8F9D4E900322B44521BC4E90032002038BD0CB40B4610B5044686B00A485B
:2067400008AA02A9CDE9040152F8041B04A8CDE901240393FFF736FB0022029B1A7006B075
:20676000BDE8104002B070470D67000010B501210C20FDF771FEBDE81040014B5B6818476E
:2067800078D00000014B9B68184700BF78D00000014B1B6A184700BFDCCD0000014B5B6A53
:2067A000184700BFDCCD000010B50D4B82B01B6898470C4B04469B6A182001A998470128D1
:2067C0000BD0002CB8BF1524019B802BD4BFC4EB0300C4F1800002B010BD002002B010BD23
:2067E00078D00000DCCD000000F0A6B900B583B0FDF7F6FD032802D103B05DF804FBFFF78F
:20680000C1FF0028F8DB0E20FDF740FE0E49FDF783FEA0B10D20FDF739FE0B49FDF77CFE26
:206820000028E9D1FDF79AFF0028E5D1FDF7BCFF064B9B68019303B05DF804EB1847FDF72A
:206840002DFE0028D8D0E5E71411002070D1000010B5064C82B01820A36A01A9984718B903
:2068600000F02CFA236A984702B010BDDCCD00002DE9F0470D4614468B680646D3E9007801
:20688000506B92F82C90FCF7CBFE6868FDF72EFAA9681E48FCF718FF29461D48FCF714FFF4
:2068A000606BFCF76FFEE0B10023A385FBF7D4FD0146184D234604F10C00A5FB01540D1BDB
:2068C00004EB5504A408C4EBC404091B124AFCF7CFF94B46324641463846BDE8F047FDF734
:2068E00095BF04F10C00FCF70BFA21460B48FCF797FE21460A48FCF7E7FE4B4632464146E8
:206900003846BDE8F047FDF781BF00BFDC010020F401002025499224256900006C130020C7
